{
  "contractName": "Staker",
  "abi": [
    {
      "inputs": [
        {
          "internalType": "address",
          "name": "_rewardToken",
          "type": "address"
        },
        {
          "internalType": "uint256",
          "name": "_newDistributionSupply",
          "type": "uint256"
        },
        {
          "internalType": "uint256",
          "name": "_blocksSchedule",
          "type": "uint256"
        }
      ],
      "stateMutability": "nonpayable",
      "type": "constructor"
    },
    {
      "anonymous": false,
      "inputs": [
        {
          "indexed": true,
          "internalType": "address",
          "name": "staker",
          "type": "address"
        },
        {
          "indexed": true,
          "internalType": "uint256",
          "name": "amount",
          "type": "uint256"
        },
        {
          "indexed": true,
          "internalType": "uint256",
          "name": "blockNumber",
          "type": "uint256"
        },
        {
          "indexed": false,
          "internalType": "uint256",
          "name": "balancesStake",
          "type": "uint256"
        },
        {
          "indexed": false,
          "internalType": "uint256",
          "name": "balanceRewards",
          "type": "uint256"
        },
        {
          "indexed": false,
          "internalType": "uint256",
          "name": "totalBalances",
          "type": "uint256"
        }
      ],
      "name": "Deposit",
      "type": "event"
    },
    {
      "anonymous": false,
      "inputs": [
        {
          "indexed": true,
          "internalType": "address",
          "name": "admin",
          "type": "address"
        },
        {
          "indexed": true,
          "internalType": "uint256",
          "name": "amountDistributed",
          "type": "uint256"
        },
        {
          "indexed": true,
          "internalType": "uint256",
          "name": "rewardsTotal",
          "type": "uint256"
        }
      ],
      "name": "Reward",
      "type": "event"
    },
    {
      "anonymous": false,
      "inputs": [
        {
          "indexed": true,
          "internalType": "address",
          "name": "staker",
          "type": "address"
        },
        {
          "indexed": true,
          "internalType": "uint256",
          "name": "amount",
          "type": "uint256"
        },
        {
          "indexed": true,
          "internalType": "uint256",
          "name": "blockNumber",
          "type": "uint256"
        },
        {
          "indexed": false,
          "internalType": "uint256",
          "name": "balancesStake",
          "type": "uint256"
        },
        {
          "indexed": false,
          "internalType": "uint256",
          "name": "balanceRewards",
          "type": "uint256"
        },
        {
          "indexed": false,
          "internalType": "uint256",
          "name": "totalBalances",
          "type": "uint256"
        }
      ],
      "name": "Withdrawal",
      "type": "event"
    },
    {
      "inputs": [],
      "name": "blocksSchedule",
      "outputs": [
        {
          "internalType": "uint256",
          "name": "",
          "type": "uint256"
        }
      ],
      "stateMutability": "view",
      "type": "function",
      "constant": true
    },
    {
      "inputs": [],
      "name": "lastSchedule",
      "outputs": [
        {
          "internalType": "uint256",
          "name": "",
          "type": "uint256"
        }
      ],
      "stateMutability": "view",
      "type": "function",
      "constant": true
    },
    {
      "inputs": [],
      "name": "newDistributionSupply",
      "outputs": [
        {
          "internalType": "uint256",
          "name": "",
          "type": "uint256"
        }
      ],
      "stateMutability": "view",
      "type": "function",
      "constant": true
    },
    {
      "inputs": [],
      "name": "rewardToken",
      "outputs": [
        {
          "internalType": "contract RewardToken",
          "name": "",
          "type": "address"
        }
      ],
      "stateMutability": "view",
      "type": "function",
      "constant": true
    },
    {
      "inputs": [],
      "name": "stakeStartBlock",
      "outputs": [
        {
          "internalType": "uint256",
          "name": "",
          "type": "uint256"
        }
      ],
      "stateMutability": "view",
      "type": "function",
      "constant": true
    },
    {
      "inputs": [],
      "name": "totalRewardCycles",
      "outputs": [
        {
          "internalType": "uint256",
          "name": "",
          "type": "uint256"
        }
      ],
      "stateMutability": "view",
      "type": "function",
      "constant": true
    },
    {
      "inputs": [],
      "name": "totalStaked",
      "outputs": [
        {
          "internalType": "uint256",
          "name": "",
          "type": "uint256"
        }
      ],
      "stateMutability": "view",
      "type": "function",
      "constant": true
    },
    {
      "inputs": [],
      "name": "totalStakers",
      "outputs": [
        {
          "internalType": "uint256",
          "name": "",
          "type": "uint256"
        }
      ],
      "stateMutability": "view",
      "type": "function",
      "constant": true
    },
    {
      "inputs": [],
      "name": "latestBlock",
      "outputs": [
        {
          "internalType": "uint256",
          "name": "",
          "type": "uint256"
        }
      ],
      "stateMutability": "view",
      "type": "function",
      "constant": true
    },
    {
      "inputs": [
        {
          "internalType": "address",
          "name": "_staker",
          "type": "address"
        }
      ],
      "name": "balanceStaked",
      "outputs": [
        {
          "internalType": "uint256",
          "name": "_stakedBalance",
          "type": "uint256"
        }
      ],
      "stateMutability": "view",
      "type": "function",
      "constant": true
    },
    {
      "inputs": [
        {
          "internalType": "address",
          "name": "_staker",
          "type": "address"
        }
      ],
      "name": "balanceRewards",
      "outputs": [
        {
          "internalType": "uint256",
          "name": "_rewards",
          "type": "uint256"
        }
      ],
      "stateMutability": "view",
      "type": "function",
      "constant": true
    },
    {
      "inputs": [
        {
          "internalType": "address",
          "name": "_staker",
          "type": "address"
        }
      ],
      "name": "balanceTotal",
      "outputs": [
        {
          "internalType": "uint256",
          "name": "_total",
          "type": "uint256"
        }
      ],
      "stateMutability": "view",
      "type": "function",
      "constant": true
    },
    {
      "inputs": [
        {
          "internalType": "address",
          "name": "_staker",
          "type": "address"
        }
      ],
      "name": "isStaker",
      "outputs": [
        {
          "internalType": "bool",
          "name": "_is",
          "type": "bool"
        }
      ],
      "stateMutability": "view",
      "type": "function",
      "constant": true
    },
    {
      "inputs": [
        {
          "internalType": "uint256",
          "name": "_amount",
          "type": "uint256"
        }
      ],
      "name": "changeDistributionAmount",
      "outputs": [],
      "stateMutability": "nonpayable",
      "type": "function"
    },
    {
      "inputs": [
        {
          "internalType": "uint256",
          "name": "_newSchedule",
          "type": "uint256"
        }
      ],
      "name": "changeBlockSchedule",
      "outputs": [],
      "stateMutability": "nonpayable",
      "type": "function"
    },
    {
      "inputs": [
        {
          "internalType": "uint256",
          "name": "_amount",
          "type": "uint256"
        }
      ],
      "name": "deposit",
      "outputs": [],
      "stateMutability": "nonpayable",
      "type": "function"
    },
    {
      "inputs": [
        {
          "internalType": "uint256",
          "name": "_amount",
          "type": "uint256"
        }
      ],
      "name": "withdraw",
      "outputs": [],
      "stateMutability": "nonpayable",
      "type": "function"
    },
    {
      "inputs": [],
      "name": "withdraw",
      "outputs": [],
      "stateMutability": "nonpayable",
      "type": "function"
    },
    {
      "inputs": [],
      "name": "reward",
      "outputs": [],
      "stateMutability": "nonpayable",
      "type": "function"
    }
  ],
  "bytecode": "0x608060405234801561001057600080fd5b50604051611bfa380380611bfa8339818101604052606081101561003357600080fd5b81019080805190602001909291908051906020019092919080519060200190929190505050826000806101000a81548173ffffffffffffffffffffffffffffffffffffffff021916908373ffffffffffffffffffffffffffffffffffffffff16021790555043600181905550670de0b6b3a7640000820260038190555080600481905550600154600581905550505050611b28806100d26000396000f3fe608060405234801561001057600080fd5b50600436106101215760003560e01c80634b5e7cd5116100ad578063869890381161007157806386989038146103ac578063b6b55f25146103ca578063e22c56e9146103f8578063f70e6ca014610416578063f7c618c11461044457610121565b80634b5e7cd5146102665780634ec67f6e146102845780636d880bcd146102dc5780636f1e853314610334578063817b1cd21461038e57610121565b8063228cb733116100f4578063228cb7331461019e57806323f0fa77146101a85780632e1a7d4d146101d65780633b477585146102045780633ccfd60b1461025c57610121565b806302b2cf3014610126578063049255ab1461014457806307e2da96146101625780630cd9dfe614610180575b600080fd5b61012e610478565b6040518082815260200191505060405180910390f35b61014c61047e565b6040518082815260200191505060405180910390f35b61016a610484565b6040518082815260200191505060405180910390f35b61018861048c565b6040518082815260200191505060405180910390f35b6101a6610492565b005b6101d4600480360360208110156101be57600080fd5b8101908080359060200190929190505050610808565b005b610202600480360360208110156101ec57600080fd5b810190808035906020019092919050505061095c565b005b6102466004803603602081101561021a57600080fd5b81019080803573ffffffffffffffffffffffffffffffffffffffff169060200190929190505050610a96565b6040518082815260200191505060405180910390f35b610264610adf565b005b61026e610c04565b6040518082815260200191505060405180910390f35b6102c66004803603602081101561029a57600080fd5b81019080803573ffffffffffffffffffffffffffffffffffffffff169060200190929190505050610c0a565b6040518082815260200191505060405180910390f35b61031e600480360360208110156102f257600080fd5b81019080803573ffffffffffffffffffffffffffffffffffffffff169060200190929190505050610c53565b6040518082815260200191505060405180910390f35b6103766004803603602081101561034a57600080fd5b81019080803573ffffffffffffffffffffffffffffffffffffffff169060200190929190505050610c9c565b60405180821515815260200191505060405180910390f35b610396610ce7565b6040518082815260200191505060405180910390f35b6103b4610ced565b6040518082815260200191505060405180910390f35b6103f6600480360360208110156103e057600080fd5b8101908080359060200190929190505050610cf3565b005b610400611248565b6040518082815260200191505060405180910390f35b6104426004803603602081101561042c57600080fd5b810190808035906020019092919050505061124e565b005b61044c611395565b604051808273ffffffffffffffffffffffffffffffffffffffff16815260200191505060405180910390f35b60055481565b60025481565b600043905090565b60045481565b600454600554430310156104a557600080fd5b336001151560008054906101000a900473ffffffffffffffffffffffffffffffffffffffff1673ffffffffffffffffffffffffffffffffffffffff16632f54bf6e836040518263ffffffff1660e01b8152600401808273ffffffffffffffffffffffffffffffffffffffff16815260200191505060206040518083038186803b15801561053157600080fd5b505afa158015610545573d6000803e3d6000fd5b505050506040513d602081101561055b57600080fd5b81019080805190602001909291905050501515146105e1576040517f08c379a00000000000000000000000000000000000000000000000000000000081526004018080602001828103825260178152602001807f43616c6c6572206973206e6f7420746865206f776e657200000000000000000081525060200191505060405180910390fd5b60008054906101000a900473ffffffffffffffffffffffffffffffffffffffff1673ffffffffffffffffffffffffffffffffffffffff166340c10f19306003546040518363ffffffff1660e01b8152600401808373ffffffffffffffffffffffffffffffffffffffff16815260200182815260200192505050600060405180830381600087803b15801561067457600080fd5b505af1158015610688573d6000803e3d6000fd5b505050506106a260016002546113b990919063ffffffff16565b6002819055504360058190555060005b6006548110156107bb576000600882815481106106cb57fe5b9060005260206000200160009054906101000a900473ffffffffffffffffffffffffffffffffffffffff16905061070181610c9c565b156107ad57600061071482600354611441565b905061076881600a60008573ffffffffffffffffffffffffffffffffffffffff1673ffffffffffffffffffffffffffffffffffffffff168152602001908152602001600020546113b990919063ffffffff16565b600a60008473ffffffffffffffffffffffffffffffffffffffff1673ffffffffffffffffffffffffffffffffffffffff16815260200190815260200160002081905550505b5080806001019150506106b2565b506002546003543373ffffffffffffffffffffffffffffffffffffffff167f02a6a2be713fedf52f113c0a759f1c1a23a113476d9b1b1a2a453c910660de4e60405160405180910390a450565b336001151560008054906101000a900473ffffffffffffffffffffffffffffffffffffffff1673ffffffffffffffffffffffffffffffffffffffff16632f54bf6e836040518263ffffffff1660e01b8152600401808273ffffffffffffffffffffffffffffffffffffffff16815260200191505060206040518083038186803b15801561089457600080fd5b505afa1580156108a8573d6000803e3d6000fd5b505050506040513d60208110156108be57600080fd5b8101908080519060200190929190505050151514610944576040517f08c379a00000000000000000000000000000000000000000000000000000000081526004018080602001828103825260178152602001807f43616c6c6572206973206e6f7420746865206f776e657200000000000000000081525060200191505060405180910390fd5b6000821161095157600080fd5b816003819055505050565b6000811161096957600080fd5b80600b60003373ffffffffffffffffffffffffffffffffffffffff1673ffffffffffffffffffffffffffffffffffffffff1681526020019081526020016000205410156109b557600080fd5b60008054906101000a900473ffffffffffffffffffffffffffffffffffffffff1673ffffffffffffffffffffffffffffffffffffffff1663a9059cbb33836040518363ffffffff1660e01b8152600401808373ffffffffffffffffffffffffffffffffffffffff16815260200182815260200192505050602060405180830381600087803b158015610a4657600080fd5b505af1158015610a5a573d6000803e3d6000fd5b505050506040513d6020811015610a7057600080fd5b8101908080519060200190929190505050610a8a57600080fd5b610a93816114c8565b50565b6000600a60008373ffffffffffffffffffffffffffffffffffffffff1673ffffffffffffffffffffffffffffffffffffffff168152602001908152602001600020549050919050565b6000600b60003373ffffffffffffffffffffffffffffffffffffffff1673ffffffffffffffffffffffffffffffffffffffff16815260200190815260200160002054905060008054906101000a900473ffffffffffffffffffffffffffffffffffffffff1673ffffffffffffffffffffffffffffffffffffffff1663a9059cbb33836040518363ffffffff1660e01b8152600401808373ffffffffffffffffffffffffffffffffffffffff16815260200182815260200192505050602060405180830381600087803b158015610bb457600080fd5b505af1158015610bc8573d6000803e3d6000fd5b505050506040513d6020811015610bde57600080fd5b8101908080519060200190929190505050610bf857600080fd5b610c01816114c8565b50565b60015481565b6000600960008373ffffffffffffffffffffffffffffffffffffffff1673ffffffffffffffffffffffffffffffffffffffff168152602001908152602001600020549050919050565b6000600b60008373ffffffffffffffffffffffffffffffffffffffff1673ffffffffffffffffffffffffffffffffffffffff168152602001908152602001600020549050919050565b600080600960008473ffffffffffffffffffffffffffffffffffffffff1673ffffffffffffffffffffffffffffffffffffffff16815260200190815260200160002054119050919050565b60075481565b60065481565b60008060009054906101000a900473ffffffffffffffffffffffffffffffffffffffff1673ffffffffffffffffffffffffffffffffffffffff166370a08231336040518263ffffffff1660e01b8152600401808273ffffffffffffffffffffffffffffffffffffffff16815260200191505060206040518083038186803b158015610d7d57600080fd5b505afa158015610d91573d6000803e3d6000fd5b505050506040513d6020811015610da757600080fd5b8101908080519060200190929190505050905060008211610dc757600080fd5b600081118015610dd75750808211155b610de057600080fd5b60008054906101000a900473ffffffffffffffffffffffffffffffffffffffff1673ffffffffffffffffffffffffffffffffffffffff166323b872dd3330856040518463ffffffff1660e01b8152600401808473ffffffffffffffffffffffffffffffffffffffff1681526020018373ffffffffffffffffffffffffffffffffffffffff1681526020018281526020019350505050602060405180830381600087803b158015610e8f57600080fd5b505af1158015610ea3573d6000803e3d6000fd5b505050506040513d6020811015610eb957600080fd5b8101908080519060200190929190505050610ed357600080fd5b6008339080600181540180825580915050600190039060005260206000200160009091909190916101000a81548173ffffffffffffffffffffffffffffffffffffffff021916908373ffffffffffffffffffffffffffffffffffffffff160217905550610f8882600960003373ffffffffffffffffffffffffffffffffffffffff1673ffffffffffffffffffffffffffffffffffffffff168152602001908152602001600020546113b990919063ffffffff16565b600960003373ffffffffffffffffffffffffffffffffffffffff1673ffffffffffffffffffffffffffffffffffffffff168152602001908152602001600020819055506110ad61105f600a60003373ffffffffffffffffffffffffffffffffffffffff1673ffffffffffffffffffffffffffffffffffffffff16815260200190815260200160002054600960003373ffffffffffffffffffffffffffffffffffffffff1673ffffffffffffffffffffffffffffffffffffffff168152602001908152602001600020546113b990919063ffffffff16565b600b60003373ffffffffffffffffffffffffffffffffffffffff1673ffffffffffffffffffffffffffffffffffffffff168152602001908152602001600020546113b990919063ffffffff16565b600b60003373ffffffffffffffffffffffffffffffffffffffff1673ffffffffffffffffffffffffffffffffffffffff1681526020019081526020016000208190555061110660016006546113b990919063ffffffff16565b600681905550611121826007546113b990919063ffffffff16565b60078190555043823373ffffffffffffffffffffffffffffffffffffffff167ff943cf10ef4d1e3239f4716ddecdf546e8ba8ab0e41deafd9a71a99936827e45600960003373ffffffffffffffffffffffffffffffffffffffff1673ffffffffffffffffffffffffffffffffffffffff16815260200190815260200160002054600a60003373ffffffffffffffffffffffffffffffffffffffff1673ffffffffffffffffffffffffffffffffffffffff16815260200190815260200160002054600b60003373ffffffffffffffffffffffffffffffffffffffff1673ffffffffffffffffffffffffffffffffffffffff1681526020019081526020016000205460405180848152602001838152602001828152602001935050505060405180910390a45050565b60035481565b336001151560008054906101000a900473ffffffffffffffffffffffffffffffffffffffff1673ffffffffffffffffffffffffffffffffffffffff16632f54bf6e836040518263ffffffff1660e01b8152600401808273ffffffffffffffffffffffffffffffffffffffff16815260200191505060206040518083038186803b1580156112da57600080fd5b505afa1580156112ee573d6000803e3d6000fd5b505050506040513d602081101561130457600080fd5b810190808051906020019092919050505015151461138a576040517f08c379a00000000000000000000000000000000000000000000000000000000081526004018080602001828103825260178152602001807f43616c6c6572206973206e6f7420746865206f776e657200000000000000000081525060200191505060405180910390fd5b816004819055505050565b60008054906101000a900473ffffffffffffffffffffffffffffffffffffffff1681565b600080828401905083811015611437576040517f08c379a000000000000000000000000000000000000000000000000000000000815260040180806020018281038252601b8152602001807f536166654d6174683a206164646974696f6e206f766572666c6f77000000000081525060200191505060405180910390fd5b8091505092915050565b600061144c83610c9c565b61145957600090506114c2565b6114bf6007546114b184600960008873ffffffffffffffffffffffffffffffffffffffff1673ffffffffffffffffffffffffffffffffffffffff1681526020019081526020016000205461183190919063ffffffff16565b6118b790919063ffffffff16565b90505b92915050565b6114de600160065461190190919063ffffffff16565b6006819055506114f98160075461190190919063ffffffff16565b600781905550600a60003373ffffffffffffffffffffffffffffffffffffffff1673ffffffffffffffffffffffffffffffffffffffff1681526020019081526020016000205481116115df5761159781600a60003373ffffffffffffffffffffffffffffffffffffffff1673ffffffffffffffffffffffffffffffffffffffff1681526020019081526020016000205461190190919063ffffffff16565b600a60003373ffffffffffffffffffffffffffffffffffffffff1673ffffffffffffffffffffffffffffffffffffffff16815260200190815260200160002081905550611711565b6000611633600a60003373ffffffffffffffffffffffffffffffffffffffff1673ffffffffffffffffffffffffffffffffffffffff168152602001908152602001600020548361190190919063ffffffff16565b90506000600a60003373ffffffffffffffffffffffffffffffffffffffff1673ffffffffffffffffffffffffffffffffffffffff168152602001908152602001600020819055506116cc81600960003373ffffffffffffffffffffffffffffffffffffffff1673ffffffffffffffffffffffffffffffffffffffff1681526020019081526020016000205461190190919063ffffffff16565b600960003373ffffffffffffffffffffffffffffffffffffffff1673ffffffffffffffffffffffffffffffffffffffff16815260200190815260200160002081905550505b43813373ffffffffffffffffffffffffffffffffffffffff167fc0b3ba2947088830cf00d9b5e04a5a149db9588697df02a2eea7e33fd876e22f600960003373ffffffffffffffffffffffffffffffffffffffff1673ffffffffffffffffffffffffffffffffffffffff16815260200190815260200160002054600a60003373ffffffffffffffffffffffffffffffffffffffff1673ffffffffffffffffffffffffffffffffffffffff16815260200190815260200160002054600b60003373ffffffffffffffffffffffffffffffffffffffff1673ffffffffffffffffffffffffffffffffffffffff1681526020019081526020016000205460405180848152602001838152602001828152602001935050505060405180910390a450565b60008083141561184457600090506118b1565b600082840290508284828161185557fe5b04146118ac576040517f08c379a0000000000000000000000000000000000000000000000000000000008152600401808060200182810382526021815260200180611ad26021913960400191505060405180910390fd5b809150505b92915050565b60006118f983836040518060400160405280601a81526020017f536166654d6174683a206469766973696f6e206279207a65726f00000000000081525061194b565b905092915050565b600061194383836040518060400160405280601e81526020017f536166654d6174683a207375627472616374696f6e206f766572666c6f770000815250611a11565b905092915050565b600080831182906119f7576040517f08c379a00000000000000000000000000000000000000000000000000000000081526004018080602001828103825283818151815260200191508051906020019080838360005b838110156119bc5780820151818401526020810190506119a1565b50505050905090810190601f1680156119e95780820380516001836020036101000a031916815260200191505b509250505060405180910390fd5b506000838581611a0357fe5b049050809150509392505050565b6000838311158290611abe576040517f08c379a00000000000000000000000000000000000000000000000000000000081526004018080602001828103825283818151815260200191508051906020019080838360005b83811015611a83578082015181840152602081019050611a68565b50505050905090810190601f168015611ab05780820380516001836020036101000a031916815260200191505b509250505060405180910390fd5b506000838503905080915050939250505056fe536166654d6174683a206d756c7469706c69636174696f6e206f766572666c6f77a26469706673582212202b54f155da56dc63efc669ac5036f353562106e2b74b4bc52d218c1309d81efc64736f6c63430007060033",
  "immutableReferences": {},
  "source": "// SPDX-License-Identifier: MIT\n// Code adopted from https://medium.com/@tnhollan/how-to-implement-staking-in-solidity-cdb1d0506ef6\n// Input is also from my own code https://github.com/MatricksDeCoder/Fojini-DEX \n\npragma solidity ^0.7.3;\n\nimport \"./RewardToken.sol\";\n// Library SafeMath used to prevent overflows and underflows \nimport \"@openzeppelin/contracts/math/SafeMath.sol\";\n\n/**\n * @title Staker Contract \n * @dev   Staking Contract mints new tokens every number blocks eg 100 and distributes proportion to stakers amount staked\n */\n \ncontract Staker {\n    using SafeMath for uint256;\n\n    // address RewardToken\n    RewardToken public rewardToken;\n    \n    // time/block staking contract started\n    uint public stakeStartBlock;    \n    // total number of reward distributions since start\n    uint public totalRewardCycles;\n    // distibution amount per period\n    uint public newDistributionSupply;\n\n    // block schedule for rewards e.g every 100 blocks\n    uint public blocksSchedule;\n    // last block distribution occured\n    uint public lastSchedule;\n\n    // \n    // number of stakers \n    uint public totalStakers;\n    // total amounts of RewardTokens staked\n    uint public totalStaked;\n    // collection of all the stakers\n    address[] internal stakers;\n\n    // staked amount balances of the stakers\n    mapping(address => uint256) internal stakeBalances;\n    // reward amount balances of the stakers \n    mapping(address => uint256) internal rewardBalances;\n    // total staked + rewards due to the staker\n    mapping(address => uint256) internal totalBalances;\n\n    // ensure only authozrized owners\n    modifier isValidOwner(address _address) {\n        require(rewardToken.isOwner(_address)== true, \"Caller is not the owner\");\n        _;\n    }\n\n    // sufficient blocks have passed to give rewards\n    modifier isValidSchedule() {\n        require((block.number-lastSchedule) >= blocksSchedule);\n        _;\n    }\n\n    // Event when someone stakes into the contract\n    event Deposit(address indexed staker, \n                  uint    indexed amount,\n                  uint    indexed blockNumber,\n                  uint    balancesStake,\n                  uint    balanceRewards,\n                  uint    totalBalances\n                 );\n    // Event when someone withdraws amount from stake\n    event  Withdrawal(address indexed staker, \n                      uint    indexed amount,\n                      uint    indexed blockNumber,\n                      uint    balancesStake,\n                      uint    balanceRewards,\n                      uint    totalBalances\n                  );\n    // Event when stakers are rewarded with RewardTokens \n    event  Reward(address indexed admin, \n                    uint    indexed amountDistributed,\n                    uint    indexed rewardsTotal\n                  );\n\n    constructor(address _rewardToken, uint _newDistributionSupply, uint _blocksSchedule) \n    {\n        rewardToken     = RewardToken(_rewardToken);       \n        stakeStartBlock = block.number;\n        newDistributionSupply = _newDistributionSupply *10 **(18);\n        blocksSchedule = _blocksSchedule;\n        lastSchedule = stakeStartBlock;\n    }\n\n    /// @notice Get the current blockNumber\n    /// @return returns the latest block number\n    function latestBlock() external view returns(uint) {\n        return block.number;\n    }\n\n    /// @notice Get the current amount of RewardTokens address has staked\n    /// @param _staker address to query staked balance\n    /// @return _stakedBalance the amount staked by address _staker\n    function balanceStaked(address _staker) external view returns(uint _stakedBalance) {\n        return stakeBalances[_staker];\n    }\n\n    /// @notice Get the current amount of RewardTokens address has earned as rewards for staking\n    /// @param _staker address to query rewards balance\n    /// @return _rewards the current amount of rewards earned by address _staker\n    function balanceRewards(address _staker) external view returns(uint _rewards) {\n        return rewardBalances[_staker];\n    }\n\n    /// @notice Get the total amount of RewardTokens address currently has (balanceStaked + balanceRewards)\n    /// @param _staker address to query total balance\n    /// @return _total the current amount of rewards earned by address _staker\n    function balanceTotal(address _staker) external view returns(uint _total) {\n        return totalBalances[_staker];\n    }\n\n    /// @notice Check if address is currently a staker in contract. \n    /// @notice If balanceStaked is zero through not having participated or withdrawals, address no longer staker\n    /// @param _staker address to query if currently a staker\n    /// @return _is the result true or false\n    function isStaker(address _staker) public view returns(bool _is) {\n        return (stakeBalances[_staker] > 0);\n    }\n\n    /// @notice Change the amount of new RewardTokens that can be minted to distribute as rewards\n    /// @notice Only owner/admin can change this, new RewardTokens to distirbute must not be more than current supply\n    /// @param _amount amount of new reward tokens that cna be distributed as rewards\n    function changeDistributionAmount(uint _amount) isValidOwner(msg.sender) external {\n        require(_amount > 0);\n        newDistributionSupply = _amount;\n    }\n\n    /// @notice Change rate of reward distribution by changing blocksSchedule e.g every 4 blocks every 400 blocks etc \n    /// @param _newSchedule  number of blocks before distributing rewards to stakers\n    function changeBlockSchedule(uint _newSchedule) isValidOwner(msg.sender) external {\n        blocksSchedule = _newSchedule;\n    }\n\n    /// @notice Deposit RewardTokens into Staker Contract to earn staking rewards \n    /// @param _amount amount of RewardTokens to be staked \n    function deposit(uint _amount) external  {\n        uint tokenbalanceDepositor = rewardToken.balanceOf(msg.sender);\n        require(_amount > 0);\n        require(tokenbalanceDepositor > 0 && _amount<= tokenbalanceDepositor);\n        require(rewardToken.transferFrom(msg.sender, address(this), _amount));\n        stakers.push(msg.sender);\n        stakeBalances[msg.sender]  = stakeBalances[msg.sender].add(_amount);\n        totalBalances[msg.sender]  = totalBalances[msg.sender].add(stakeBalances[msg.sender].add(rewardBalances[msg.sender]));\n        totalStakers               = totalStakers.add(1);\n        totalStaked                = totalStaked.add(_amount);\n        emit Deposit(msg.sender, \n                     _amount,\n                    block.number, \n                    stakeBalances[msg.sender],\n                    rewardBalances[msg.sender],\n                    totalBalances[msg.sender]\n                    );\n    }\n\n    /// @notice internal helper function \n    /// @notice Withdraw a specified amount of given tokens\n    /// @notice Withdrawal starts by taking out rewards first if amount exceeds rewards it reduces staked amount\n    /// @notice if withdrawal results in staked amount = 0 you are no longer earning rewards and not considered a staker in project\n    /// @param _amount amount of RewardTokens to be withdrawn \n    function _withdraw(uint _amount) internal {\n\n        totalStakers              =  totalStakers.sub(1);\n        totalStaked               =  totalStaked.sub(_amount);\n        if(_amount <= rewardBalances[msg.sender]) {\n            rewardBalances[msg.sender] = rewardBalances[msg.sender].sub(_amount);\n        } else {\n            uint _excess                = _amount.sub(rewardBalances[msg.sender]);\n            rewardBalances[msg.sender] = 0;\n            stakeBalances[msg.sender]  = stakeBalances[msg.sender].sub(_excess);\n        }\n        \n        emit Withdrawal(msg.sender, \n                        _amount,\n                        block.number, \n                        stakeBalances[msg.sender],\n                        rewardBalances[msg.sender],\n                        totalBalances[msg.sender]\n                    );\n\n    }\n\n    /// @notice  Withdraw an amount of RewardTokens\n    /// @param _amount amount of RewardTokens to be withdrawn\n    function withdraw(uint _amount) external {\n        require(_amount > 0);\n        require(totalBalances[msg.sender] >= _amount);\n        require(rewardToken.transfer(msg.sender, _amount)); \n        _withdraw(_amount);        \n    }\n\n    /// @notice Withdraw all your balances in project (stake + rewards ) \n    /// @notice Can no longer earn rewards and is considered non-staker\n    function withdraw() external {\n        uint _total = totalBalances[msg.sender];\n        require(rewardToken.transfer(msg.sender, _total)); \n        _withdraw(_total);\n    }\n\n    /// @notice Get the proportion of staked amount address to totalStaked and get proportion of new RewardTokens created\n    /// @param _staker address to query (proprtion * totalStaked ) = reward to add\n    /// @return returns reward amount for _staker\n    function shareReward(address _staker, uint _newDistributionSupply) internal view returns(uint) {\n        if(!isStaker(_staker)) {\n            return 0;\n        }\n        return (stakeBalances[_staker].mul(_newDistributionSupply)).div(totalStaked);\n    }\n\n    /// @notice One of owners distirbutes rewards to stakers\n    function reward() isValidSchedule() isValidOwner(msg.sender) external {\n        rewardToken.mint(address(this),newDistributionSupply);\n        totalRewardCycles = totalRewardCycles.add(1);\n        lastSchedule    = block.number;\n        for(uint i=0; i<totalStakers;i++) {\n            address _staker   = stakers[i];\n            if(isStaker(_staker)) {\n                uint _rewardShare = shareReward(_staker, newDistributionSupply);            \n                rewardBalances[_staker] = rewardBalances[_staker].add(_rewardShare);\n            }\n        }\n        emit Reward(\n            msg.sender,\n            newDistributionSupply,\n            totalRewardCycles\n        );\n\n    }\n\n\n}\n",
  "sourcePath": "/Users/zed/Desktop/ZED/Zed_Blockchain/projects/solidity-challenge/contracts/Staker.sol",
  "compiler": {
    "name": "solc",
    "version": "0.7.6+commit.7338295f.Emscripten.clang"
  },
  "schemaVersion": "3.3.3",
  "updatedAt": "2021-02-21T07:50:13.940Z",
  "networkType": "ethereum",
  "devdoc": {
    "details": "Staking Contract mints new tokens every number blocks eg 100 and distributes proportion to stakers amount staked",
    "kind": "dev",
    "methods": {
      "balanceRewards(address)": {
        "params": {
          "_staker": "address to query rewards balance"
        },
        "returns": {
          "_rewards": "the current amount of rewards earned by address _staker"
        }
      },
      "balanceStaked(address)": {
        "params": {
          "_staker": "address to query staked balance"
        },
        "returns": {
          "_stakedBalance": "the amount staked by address _staker"
        }
      },
      "balanceTotal(address)": {
        "params": {
          "_staker": "address to query total balance"
        },
        "returns": {
          "_total": "the current amount of rewards earned by address _staker"
        }
      },
      "changeBlockSchedule(uint256)": {
        "params": {
          "_newSchedule": "number of blocks before distributing rewards to stakers"
        }
      },
      "changeDistributionAmount(uint256)": {
        "params": {
          "_amount": "amount of new reward tokens that cna be distributed as rewards"
        }
      },
      "deposit(uint256)": {
        "params": {
          "_amount": "amount of RewardTokens to be staked "
        }
      },
      "isStaker(address)": {
        "params": {
          "_staker": "address to query if currently a staker"
        },
        "returns": {
          "_is": "the result true or false"
        }
      },
      "latestBlock()": {
        "returns": {
          "_0": "returns the latest block number"
        }
      },
      "withdraw(uint256)": {
        "params": {
          "_amount": "amount of RewardTokens to be withdrawn"
        }
      }
    },
    "title": "Staker Contract ",
    "version": 1
  },
  "userdoc": {
    "kind": "user",
    "methods": {
      "balanceRewards(address)": {
        "notice": "Get the current amount of RewardTokens address has earned as rewards for staking"
      },
      "balanceStaked(address)": {
        "notice": "Get the current amount of RewardTokens address has staked"
      },
      "balanceTotal(address)": {
        "notice": "Get the total amount of RewardTokens address currently has (balanceStaked + balanceRewards)"
      },
      "changeBlockSchedule(uint256)": {
        "notice": "Change rate of reward distribution by changing blocksSchedule e.g every 4 blocks every 400 blocks etc "
      },
      "changeDistributionAmount(uint256)": {
        "notice": "Change the amount of new RewardTokens that can be minted to distribute as rewardsOnly owner/admin can change this, new RewardTokens to distirbute must not be more than current supply"
      },
      "deposit(uint256)": {
        "notice": "Deposit RewardTokens into Staker Contract to earn staking rewards "
      },
      "isStaker(address)": {
        "notice": "Check if address is currently a staker in contract. If balanceStaked is zero through not having participated or withdrawals, address no longer staker"
      },
      "latestBlock()": {
        "notice": "Get the current blockNumber"
      },
      "reward()": {
        "notice": "One of owners distirbutes rewards to stakers"
      },
      "withdraw()": {
        "notice": "Withdraw all your balances in project (stake + rewards ) Can no longer earn rewards and is considered non-staker"
      },
      "withdraw(uint256)": {
        "notice": "Withdraw an amount of RewardTokens"
      }
    },
    "version": 1
  }
}